{
  "contractName": "RockSolidToken",
  "abi": [
    {
      "inputs": [],
      "stateMutability": "nonpayable",
      "type": "constructor"
    },
    {
      "anonymous": false,
      "inputs": [
        {
          "indexed": true,
          "internalType": "address",
          "name": "account",
          "type": "address"
        },
        {
          "indexed": true,
          "internalType": "address",
          "name": "operator",
          "type": "address"
        },
        {
          "indexed": false,
          "internalType": "bool",
          "name": "approved",
          "type": "bool"
        }
      ],
      "name": "ApprovalForAll",
      "type": "event"
    },
    {
      "anonymous": false,
      "inputs": [
        {
          "indexed": true,
          "internalType": "address",
          "name": "operator",
          "type": "address"
        },
        {
          "indexed": true,
          "internalType": "address",
          "name": "from",
          "type": "address"
        },
        {
          "indexed": true,
          "internalType": "address",
          "name": "to",
          "type": "address"
        },
        {
          "indexed": false,
          "internalType": "uint256[]",
          "name": "ids",
          "type": "uint256[]"
        },
        {
          "indexed": false,
          "internalType": "uint256[]",
          "name": "values",
          "type": "uint256[]"
        }
      ],
      "name": "TransferBatch",
      "type": "event"
    },
    {
      "anonymous": false,
      "inputs": [
        {
          "indexed": true,
          "internalType": "address",
          "name": "operator",
          "type": "address"
        },
        {
          "indexed": true,
          "internalType": "address",
          "name": "from",
          "type": "address"
        },
        {
          "indexed": true,
          "internalType": "address",
          "name": "to",
          "type": "address"
        },
        {
          "indexed": false,
          "internalType": "uint256",
          "name": "id",
          "type": "uint256"
        },
        {
          "indexed": false,
          "internalType": "uint256",
          "name": "value",
          "type": "uint256"
        }
      ],
      "name": "TransferSingle",
      "type": "event"
    },
    {
      "anonymous": false,
      "inputs": [
        {
          "indexed": false,
          "internalType": "string",
          "name": "value",
          "type": "string"
        },
        {
          "indexed": true,
          "internalType": "uint256",
          "name": "id",
          "type": "uint256"
        }
      ],
      "name": "URI",
      "type": "event"
    },
    {
      "inputs": [],
      "name": "GoldBadge",
      "outputs": [
        {
          "internalType": "uint256",
          "name": "",
          "type": "uint256"
        }
      ],
      "stateMutability": "view",
      "type": "function",
      "constant": true
    },
    {
      "inputs": [],
      "name": "Points",
      "outputs": [
        {
          "internalType": "uint256",
          "name": "",
          "type": "uint256"
        }
      ],
      "stateMutability": "view",
      "type": "function",
      "constant": true
    },
    {
      "inputs": [
        {
          "internalType": "address",
          "name": "account",
          "type": "address"
        },
        {
          "internalType": "uint256",
          "name": "id",
          "type": "uint256"
        }
      ],
      "name": "balanceOf",
      "outputs": [
        {
          "internalType": "uint256",
          "name": "",
          "type": "uint256"
        }
      ],
      "stateMutability": "view",
      "type": "function",
      "constant": true
    },
    {
      "inputs": [
        {
          "internalType": "address[]",
          "name": "accounts",
          "type": "address[]"
        },
        {
          "internalType": "uint256[]",
          "name": "ids",
          "type": "uint256[]"
        }
      ],
      "name": "balanceOfBatch",
      "outputs": [
        {
          "internalType": "uint256[]",
          "name": "",
          "type": "uint256[]"
        }
      ],
      "stateMutability": "view",
      "type": "function",
      "constant": true
    },
    {
      "inputs": [
        {
          "internalType": "address",
          "name": "account",
          "type": "address"
        },
        {
          "internalType": "address",
          "name": "operator",
          "type": "address"
        }
      ],
      "name": "isApprovedForAll",
      "outputs": [
        {
          "internalType": "bool",
          "name": "",
          "type": "bool"
        }
      ],
      "stateMutability": "view",
      "type": "function",
      "constant": true
    },
    {
      "inputs": [
        {
          "internalType": "address",
          "name": "from",
          "type": "address"
        },
        {
          "internalType": "address",
          "name": "to",
          "type": "address"
        },
        {
          "internalType": "uint256[]",
          "name": "ids",
          "type": "uint256[]"
        },
        {
          "internalType": "uint256[]",
          "name": "amounts",
          "type": "uint256[]"
        },
        {
          "internalType": "bytes",
          "name": "data",
          "type": "bytes"
        }
      ],
      "name": "safeBatchTransferFrom",
      "outputs": [],
      "stateMutability": "nonpayable",
      "type": "function"
    },
    {
      "inputs": [
        {
          "internalType": "address",
          "name": "from",
          "type": "address"
        },
        {
          "internalType": "address",
          "name": "to",
          "type": "address"
        },
        {
          "internalType": "uint256",
          "name": "id",
          "type": "uint256"
        },
        {
          "internalType": "uint256",
          "name": "amount",
          "type": "uint256"
        },
        {
          "internalType": "bytes",
          "name": "data",
          "type": "bytes"
        }
      ],
      "name": "safeTransferFrom",
      "outputs": [],
      "stateMutability": "nonpayable",
      "type": "function"
    },
    {
      "inputs": [
        {
          "internalType": "address",
          "name": "operator",
          "type": "address"
        },
        {
          "internalType": "bool",
          "name": "approved",
          "type": "bool"
        }
      ],
      "name": "setApprovalForAll",
      "outputs": [],
      "stateMutability": "nonpayable",
      "type": "function"
    },
    {
      "inputs": [
        {
          "internalType": "bytes4",
          "name": "interfaceId",
          "type": "bytes4"
        }
      ],
      "name": "supportsInterface",
      "outputs": [
        {
          "internalType": "bool",
          "name": "",
          "type": "bool"
        }
      ],
      "stateMutability": "view",
      "type": "function",
      "constant": true
    },
    {
      "inputs": [
        {
          "internalType": "uint256",
          "name": "_tokenid",
          "type": "uint256"
        }
      ],
      "name": "uri",
      "outputs": [
        {
          "internalType": "string",
          "name": "",
          "type": "string"
        }
      ],
      "stateMutability": "pure",
      "type": "function",
      "constant": true
    }
  ],
  "bytecode": "0x60806040523480156200001157600080fd5b506040518060800160405280605a8152602001620036ae605a91396200003d816200009160201b60201c565b5062000065336001620f424060405180602001604052806000815250620000a660201b60201c565b6200008b3360026103e860405180602001604052806000815250620000a660201b60201c565b62000e9c565b8060029081620000a29190620007bc565b5050565b600073ffffffffffffffffffffffffffffffffffffffff168473ffffffffffffffffffffffffffffffffffffffff160362000118576040517f08c379a00000000000000000000000000000000000000000000000000000000081526004016200010f906200092a565b60405180910390fd5b60006200012a6200028d60201b60201c565b905060006200013f856200029560201b60201c565b9050600062000154856200029560201b60201c565b90506200016d836000898585896200031660201b60201c565b8460008088815260200190815260200160002060008973ffffffffffffffffffffffffffffffffffffffff1673ffffffffffffffffffffffffffffffffffffffff1681526020019081526020016000206000828254620001ce91906200097b565b925050819055508673ffffffffffffffffffffffffffffffffffffffff16600073ffffffffffffffffffffffffffffffffffffffff168473ffffffffffffffffffffffffffffffffffffffff167fc3d58168c5ae7397731d063d5bbf3d657854427343f4c083240f7aacaa2d0f6289896040516200024e929190620009c7565b60405180910390a46200026d836000898585896200031e60201b60201c565b62000284836000898989896200032660201b60201c565b50505050505050565b600033905090565b60606000600167ffffffffffffffff811115620002b757620002b66200054d565b5b604051908082528060200260200182016040528015620002e65781602001602082028036833780820191505090505b5090508281600081518110620003015762000300620009f4565b5b60200260200101818152505080915050919050565b505050505050565b505050505050565b620003528473ffffffffffffffffffffffffffffffffffffffff166200051f60201b6200070c1760201c565b1562000517578373ffffffffffffffffffffffffffffffffffffffff1663f23a6e6187878686866040518663ffffffff1660e01b81526004016200039b95949392919062000b02565b6020604051808303816000875af1925050508015620003da57506040513d601f19601f82011682018060405250810190620003d7919062000bd2565b60015b6200048b57620003e962000c11565b806308c379a0036200044c57506200040062000c6c565b806200040d57506200044e565b806040517f08c379a000000000000000000000000000000000000000000000000000000000815260040162000443919062000d48565b60405180910390fd5b505b6040517f08c379a0000000000000000000000000000000000000000000000000000000008152600401620004829062000de2565b60405180910390fd5b63f23a6e6160e01b7bffffffffffffffffffffffffffffffffffffffffffffffffffffffff1916817bffffffffffffffffffffffffffffffffffffffffffffffffffffffff19161462000515576040517f08c379a00000000000000000000000000000000000000000000000000000000081526004016200050c9062000e7a565b60405180910390fd5b505b505050505050565b6000808273ffffffffffffffffffffffffffffffffffffffff163b119050919050565b600081519050919050565b7f4e487b7100000000000000000000000000000000000000000000000000000000600052604160045260246000fd5b7f4e487b7100000000000000000000000000000000000000000000000000000000600052602260045260246000fd5b60006002820490506001821680620005c457607f821691505b602082108103620005da57620005d96200057c565b5b50919050565b60008190508160005260206000209050919050565b60006020601f8301049050919050565b600082821b905092915050565b600060088302620006447fffffffffffffffffffffffffffffffffffffffffffffffffffffffffffffffff8262000605565b62000650868362000605565b95508019841693508086168417925050509392505050565b6000819050919050565b6000819050919050565b60006200069d62000697620006918462000668565b62000672565b62000668565b9050919050565b6000819050919050565b620006b9836200067c565b620006d1620006c882620006a4565b84845462000612565b825550505050565b600090565b620006e8620006d9565b620006f5818484620006ae565b505050565b5b818110156200071d5762000711600082620006de565b600181019050620006fb565b5050565b601f8211156200076c576200073681620005e0565b6200074184620005f5565b8101602085101562000751578190505b620007696200076085620005f5565b830182620006fa565b50505b505050565b600082821c905092915050565b6000620007916000198460080262000771565b1980831691505092915050565b6000620007ac83836200077e565b9150826002028217905092915050565b620007c78262000542565b67ffffffffffffffff811115620007e357620007e26200054d565b5b620007ef8254620005ab565b620007fc82828562000721565b600060209050601f8311600181146200083457600084156200081f578287015190505b6200082b85826200079e565b8655506200089b565b601f1984166200084486620005e0565b60005b828110156200086e5784890151825560018201915060208501945060208101905062000847565b868310156200088e57848901516200088a601f8916826200077e565b8355505b6001600288020188555050505b505050505050565b600082825260208201905092915050565b7f455243313135353a206d696e7420746f20746865207a65726f2061646472657360008201527f7300000000000000000000000000000000000000000000000000000000000000602082015250565b600062000912602183620008a3565b91506200091f82620008b4565b604082019050919050565b60006020820190508181036000830152620009458162000903565b9050919050565b7f4e487b7100000000000000000000000000000000000000000000000000000000600052601160045260246000fd5b6000620009888262000668565b9150620009958362000668565b9250828201905080821115620009b057620009af6200094c565b5b92915050565b620009c18162000668565b82525050565b6000604082019050620009de6000830185620009b6565b620009ed6020830184620009b6565b9392505050565b7f4e487b7100000000000000000000000000000000000000000000000000000000600052603260045260246000fd5b600073ffffffffffffffffffffffffffffffffffffffff82169050919050565b600062000a508262000a23565b9050919050565b62000a628162000a43565b82525050565b600081519050919050565b600082825260208201905092915050565b60005b8381101562000aa457808201518184015260208101905062000a87565b60008484015250505050565b6000601f19601f8301169050919050565b600062000ace8262000a68565b62000ada818562000a73565b935062000aec81856020860162000a84565b62000af78162000ab0565b840191505092915050565b600060a08201905062000b19600083018862000a57565b62000b28602083018762000a57565b62000b376040830186620009b6565b62000b466060830185620009b6565b818103608083015262000b5a818462000ac1565b90509695505050505050565b6000604051905090565b600080fd5b60007fffffffff0000000000000000000000000000000000000000000000000000000082169050919050565b62000bac8162000b75565b811462000bb857600080fd5b50565b60008151905062000bcc8162000ba1565b92915050565b60006020828403121562000beb5762000bea62000b70565b5b600062000bfb8482850162000bbb565b91505092915050565b60008160e01c9050919050565b600060033d111562000c335760046000803e62000c3060005162000c04565b90505b90565b62000c418262000ab0565b810181811067ffffffffffffffff8211171562000c635762000c626200054d565b5b80604052505050565b600060443d1062000d045762000c8162000b66565b60043d036004823e80513d602482011167ffffffffffffffff8211171562000cab57505062000d04565b808201805167ffffffffffffffff81111562000ccb575050505062000d04565b80602083010160043d03850181111562000cea57505050505062000d04565b62000cfb8260200185018662000c36565b82955050505050505b90565b600062000d148262000542565b62000d208185620008a3565b935062000d3281856020860162000a84565b62000d3d8162000ab0565b840191505092915050565b6000602082019050818103600083015262000d64818462000d07565b905092915050565b7f455243313135353a207472616e7366657220746f206e6f6e204552433131353560008201527f526563656976657220696d706c656d656e746572000000000000000000000000602082015250565b600062000dca603483620008a3565b915062000dd78262000d6c565b604082019050919050565b6000602082019050818103600083015262000dfd8162000dbb565b9050919050565b7f455243313135353a204552433131353552656365697665722072656a6563746560008201527f6420746f6b656e73000000000000000000000000000000000000000000000000602082015250565b600062000e62602883620008a3565b915062000e6f8262000e04565b604082019050919050565b6000602082019050818103600083015262000e958162000e53565b9050919050565b6128028062000eac6000396000f3fe608060405234801561001057600080fd5b506004361061009d5760003560e01c80634e1273f4116100665780634e1273f41461016c578063a22cb4651461019c578063c39c0f5a146101b8578063e985e9c5146101d6578063f242432a146102065761009d565b8062fdd58e146100a257806301ffc9a7146100d257806307ebec02146101025780630e89341c146101205780632eb2c2d614610150575b600080fd5b6100bc60048036038101906100b79190611509565b610222565b6040516100c99190611558565b60405180910390f35b6100ec60048036038101906100e791906115cb565b6102ea565b6040516100f99190611613565b60405180910390f35b61010a6103cc565b6040516101179190611558565b60405180910390f35b61013a6004803603810190610135919061162e565b6103d1565b60405161014791906116eb565b60405180910390f35b61016a6004803603810190610165919061190a565b610402565b005b61018660048036038101906101819190611a9c565b6104a3565b6040516101939190611bd2565b60405180910390f35b6101b660048036038101906101b19190611c20565b6105bc565b005b6101c06105d2565b6040516101cd9190611558565b60405180910390f35b6101f060048036038101906101eb9190611c60565b6105d7565b6040516101fd9190611613565b60405180910390f35b610220600480360381019061021b9190611ca0565b61066b565b005b60008073ffffffffffffffffffffffffffffffffffffffff168373ffffffffffffffffffffffffffffffffffffffff1603610292576040517f08c379a000000000000000000000000000000000000000000000000000000000815260040161028990611da9565b60405180910390fd5b60008083815260200190815260200160002060008473ffffffffffffffffffffffffffffffffffffffff1673ffffffffffffffffffffffffffffffffffffffff16815260200190815260200160002054905092915050565b60007fd9b67a26000000000000000000000000000000000000000000000000000000007bffffffffffffffffffffffffffffffffffffffffffffffffffffffff1916827bffffffffffffffffffffffffffffffffffffffffffffffffffffffff191614806103b557507f0e89341c000000000000000000000000000000000000000000000000000000007bffffffffffffffffffffffffffffffffffffffffffffffffffffffff1916827bffffffffffffffffffffffffffffffffffffffffffffffffffffffff1916145b806103c557506103c48261072f565b5b9050919050565b600281565b60606103dc82610799565b6040516020016103ec9190611ee9565b6040516020818303038152906040529050919050565b61040a6108f9565b73ffffffffffffffffffffffffffffffffffffffff168573ffffffffffffffffffffffffffffffffffffffff161480610450575061044f8561044a6108f9565b6105d7565b5b61048f576040517f08c379a000000000000000000000000000000000000000000000000000000000815260040161048690611f88565b60405180910390fd5b61049c8585858585610901565b5050505050565b606081518351146104e9576040517f08c379a00000000000000000000000000000000000000000000000000000000081526004016104e09061201a565b60405180910390fd5b6000835167ffffffffffffffff81111561050657610505611712565b5b6040519080825280602002602001820160405280156105345781602001602082028036833780820191505090505b50905060005b84518110156105b1576105818582815181106105595761055861203a565b5b60200260200101518583815181106105745761057361203a565b5b6020026020010151610222565b8282815181106105945761059361203a565b5b602002602001018181525050806105aa90612098565b905061053a565b508091505092915050565b6105ce6105c76108f9565b8383610c22565b5050565b600181565b6000600160008473ffffffffffffffffffffffffffffffffffffffff1673ffffffffffffffffffffffffffffffffffffffff16815260200190815260200160002060008373ffffffffffffffffffffffffffffffffffffffff1673ffffffffffffffffffffffffffffffffffffffff16815260200190815260200160002060009054906101000a900460ff16905092915050565b6106736108f9565b73ffffffffffffffffffffffffffffffffffffffff168573ffffffffffffffffffffffffffffffffffffffff1614806106b957506106b8856106b36108f9565b6105d7565b5b6106f8576040517f08c379a00000000000000000000000000000000000000000000000000000000081526004016106ef90611f88565b60405180910390fd5b6107058585858585610d8e565b5050505050565b6000808273ffffffffffffffffffffffffffffffffffffffff163b119050919050565b60007f01ffc9a7000000000000000000000000000000000000000000000000000000007bffffffffffffffffffffffffffffffffffffffffffffffffffffffff1916827bffffffffffffffffffffffffffffffffffffffffffffffffffffffff1916149050919050565b6060600082036107e0576040518060400160405280600181526020017f300000000000000000000000000000000000000000000000000000000000000081525090506108f4565b600082905060005b600082146108125780806107fb90612098565b915050600a8261080b919061210f565b91506107e8565b60008167ffffffffffffffff81111561082e5761082d611712565b5b6040519080825280601f01601f1916602001820160405280156108605781602001600182028036833780820191505090505b5090505b600085146108ed576001826108799190612140565b9150600a856108889190612174565b603061089491906121a5565b60f81b8183815181106108aa576108a961203a565b5b60200101907effffffffffffffffffffffffffffffffffffffffffffffffffffffffffffff1916908160001a905350600a856108e6919061210f565b9450610864565b8093505050505b919050565b600033905090565b8151835114610945576040517f08c379a000000000000000000000000000000000000000000000000000000000815260040161093c9061224b565b60405180910390fd5b600073ffffffffffffffffffffffffffffffffffffffff168473ffffffffffffffffffffffffffffffffffffffff16036109b4576040517f08c379a00000000000000000000000000000000000000000000000000000000081526004016109ab906122dd565b60405180910390fd5b60006109be6108f9565b90506109ce818787878787611029565b60005b8451811015610b7f5760008582815181106109ef576109ee61203a565b5b602002602001015190506000858381518110610a0e57610a0d61203a565b5b60200260200101519050600080600084815260200190815260200160002060008b73ffffffffffffffffffffffffffffffffffffffff1673ffffffffffffffffffffffffffffffffffffffff16815260200190815260200160002054905081811015610aaf576040517f08c379a0000000000000000000000000000000000000000000000000000000008152600401610aa69061236f565b60405180910390fd5b81810360008085815260200190815260200160002060008c73ffffffffffffffffffffffffffffffffffffffff1673ffffffffffffffffffffffffffffffffffffffff168152602001908152602001600020819055508160008085815260200190815260200160002060008b73ffffffffffffffffffffffffffffffffffffffff1673ffffffffffffffffffffffffffffffffffffffff1681526020019081526020016000206000828254610b6491906121a5565b9250508190555050505080610b7890612098565b90506109d1565b508473ffffffffffffffffffffffffffffffffffffffff168673ffffffffffffffffffffffffffffffffffffffff168273ffffffffffffffffffffffffffffffffffffffff167f4a39dc06d4c0dbc64b70af90fd698a233a518aa5d07e595d983b8c0526c8f7fb8787604051610bf692919061238f565b60405180910390a4610c0c818787878787611031565b610c1a818787878787611039565b505050505050565b8173ffffffffffffffffffffffffffffffffffffffff168373ffffffffffffffffffffffffffffffffffffffff1603610c90576040517f08c379a0000000000000000000000000000000000000000000000000000000008152600401610c8790612438565b60405180910390fd5b80600160008573ffffffffffffffffffffffffffffffffffffffff1673ffffffffffffffffffffffffffffffffffffffff16815260200190815260200160002060008473ffffffffffffffffffffffffffffffffffffffff1673ffffffffffffffffffffffffffffffffffffffff16815260200190815260200160002060006101000a81548160ff0219169083151502179055508173ffffffffffffffffffffffffffffffffffffffff168373ffffffffffffffffffffffffffffffffffffffff167f17307eab39ab6107e8899845ad3d59bd9653f200f220920489ca2b5937696c3183604051610d819190611613565b60405180910390a3505050565b600073ffffffffffffffffffffffffffffffffffffffff168473ffffffffffffffffffffffffffffffffffffffff1603610dfd576040517f08c379a0000000000000000000000000000000000000000000000000000000008152600401610df4906122dd565b60405180910390fd5b6000610e076108f9565b90506000610e1485611210565b90506000610e2185611210565b9050610e31838989858589611029565b600080600088815260200190815260200160002060008a73ffffffffffffffffffffffffffffffffffffffff1673ffffffffffffffffffffffffffffffffffffffff16815260200190815260200160002054905085811015610ec8576040517f08c379a0000000000000000000000000000000000000000000000000000000008152600401610ebf9061236f565b60405180910390fd5b85810360008089815260200190815260200160002060008b73ffffffffffffffffffffffffffffffffffffffff1673ffffffffffffffffffffffffffffffffffffffff168152602001908152602001600020819055508560008089815260200190815260200160002060008a73ffffffffffffffffffffffffffffffffffffffff1673ffffffffffffffffffffffffffffffffffffffff1681526020019081526020016000206000828254610f7d91906121a5565b925050819055508773ffffffffffffffffffffffffffffffffffffffff168973ffffffffffffffffffffffffffffffffffffffff168573ffffffffffffffffffffffffffffffffffffffff167fc3d58168c5ae7397731d063d5bbf3d657854427343f4c083240f7aacaa2d0f628a8a604051610ffa929190612458565b60405180910390a4611010848a8a86868a611031565b61101e848a8a8a8a8a61128a565b505050505050505050565b505050505050565b505050505050565b6110588473ffffffffffffffffffffffffffffffffffffffff1661070c565b15611208578373ffffffffffffffffffffffffffffffffffffffff1663bc197c8187878686866040518663ffffffff1660e01b815260040161109e9594939291906124e5565b6020604051808303816000875af19250505080156110da57506040513d601f19601f820116820180604052508101906110d79190612562565b60015b61117f576110e661259c565b806308c379a00361114257506110fa6125be565b806111055750611144565b806040517f08c379a000000000000000000000000000000000000000000000000000000000815260040161113991906116eb565b60405180910390fd5b505b6040517f08c379a0000000000000000000000000000000000000000000000000000000008152600401611176906126c0565b60405180910390fd5b63bc197c8160e01b7bffffffffffffffffffffffffffffffffffffffffffffffffffffffff1916817bffffffffffffffffffffffffffffffffffffffffffffffffffffffff191614611206576040517f08c379a00000000000000000000000000000000000000000000000000000000081526004016111fd90612752565b60405180910390fd5b505b505050505050565b60606000600167ffffffffffffffff81111561122f5761122e611712565b5b60405190808252806020026020018201604052801561125d5781602001602082028036833780820191505090505b50905082816000815181106112755761127461203a565b5b60200260200101818152505080915050919050565b6112a98473ffffffffffffffffffffffffffffffffffffffff1661070c565b15611459578373ffffffffffffffffffffffffffffffffffffffff1663f23a6e6187878686866040518663ffffffff1660e01b81526004016112ef959493929190612772565b6020604051808303816000875af192505050801561132b57506040513d601f19601f820116820180604052508101906113289190612562565b60015b6113d05761133761259c565b806308c379a003611393575061134b6125be565b806113565750611395565b806040517f08c379a000000000000000000000000000000000000000000000000000000000815260040161138a91906116eb565b60405180910390fd5b505b6040517f08c379a00000000000000000000000000000000000000000000000000000000081526004016113c7906126c0565b60405180910390fd5b63f23a6e6160e01b7bffffffffffffffffffffffffffffffffffffffffffffffffffffffff1916817bffffffffffffffffffffffffffffffffffffffffffffffffffffffff191614611457576040517f08c379a000000000000000000000000000000000000000000000000000000000815260040161144e90612752565b60405180910390fd5b505b505050505050565b6000604051905090565b600080fd5b600080fd5b600073ffffffffffffffffffffffffffffffffffffffff82169050919050565b60006114a082611475565b9050919050565b6114b081611495565b81146114bb57600080fd5b50565b6000813590506114cd816114a7565b92915050565b6000819050919050565b6114e6816114d3565b81146114f157600080fd5b50565b600081359050611503816114dd565b92915050565b600080604083850312156115205761151f61146b565b5b600061152e858286016114be565b925050602061153f858286016114f4565b9150509250929050565b611552816114d3565b82525050565b600060208201905061156d6000830184611549565b92915050565b60007fffffffff0000000000000000000000000000000000000000000000000000000082169050919050565b6115a881611573565b81146115b357600080fd5b50565b6000813590506115c58161159f565b92915050565b6000602082840312156115e1576115e061146b565b5b60006115ef848285016115b6565b91505092915050565b60008115159050919050565b61160d816115f8565b82525050565b60006020820190506116286000830184611604565b92915050565b6000602082840312156116445761164361146b565b5b6000611652848285016114f4565b91505092915050565b600081519050919050565b600082825260208201905092915050565b60005b8381101561169557808201518184015260208101905061167a565b60008484015250505050565b6000601f19601f8301169050919050565b60006116bd8261165b565b6116c78185611666565b93506116d7818560208601611677565b6116e0816116a1565b840191505092915050565b6000602082019050818103600083015261170581846116b2565b905092915050565b600080fd5b7f4e487b7100000000000000000000000000000000000000000000000000000000600052604160045260246000fd5b61174a826116a1565b810181811067ffffffffffffffff8211171561176957611768611712565b5b80604052505050565b600061177c611461565b90506117888282611741565b919050565b600067ffffffffffffffff8211156117a8576117a7611712565b5b602082029050602081019050919050565b600080fd5b60006117d16117cc8461178d565b611772565b905080838252602082019050602084028301858111156117f4576117f36117b9565b5b835b8181101561181d578061180988826114f4565b8452602084019350506020810190506117f6565b5050509392505050565b600082601f83011261183c5761183b61170d565b5b813561184c8482602086016117be565b91505092915050565b600080fd5b600067ffffffffffffffff82111561187557611874611712565b5b61187e826116a1565b9050602081019050919050565b82818337600083830152505050565b60006118ad6118a88461185a565b611772565b9050828152602081018484840111156118c9576118c8611855565b5b6118d484828561188b565b509392505050565b600082601f8301126118f1576118f061170d565b5b813561190184826020860161189a565b91505092915050565b600080600080600060a086880312156119265761192561146b565b5b6000611934888289016114be565b9550506020611945888289016114be565b945050604086013567ffffffffffffffff81111561196657611965611470565b5b61197288828901611827565b935050606086013567ffffffffffffffff81111561199357611992611470565b5b61199f88828901611827565b925050608086013567ffffffffffffffff8111156119c0576119bf611470565b5b6119cc888289016118dc565b9150509295509295909350565b600067ffffffffffffffff8211156119f4576119f3611712565b5b602082029050602081019050919050565b6000611a18611a13846119d9565b611772565b90508083825260208201905060208402830185811115611a3b57611a3a6117b9565b5b835b81811015611a645780611a5088826114be565b845260208401935050602081019050611a3d565b5050509392505050565b600082601f830112611a8357611a8261170d565b5b8135611a93848260208601611a05565b91505092915050565b60008060408385031215611ab357611ab261146b565b5b600083013567ffffffffffffffff811115611ad157611ad0611470565b5b611add85828601611a6e565b925050602083013567ffffffffffffffff811115611afe57611afd611470565b5b611b0a85828601611827565b9150509250929050565b600081519050919050565b600082825260208201905092915050565b6000819050602082019050919050565b611b49816114d3565b82525050565b6000611b5b8383611b40565b60208301905092915050565b6000602082019050919050565b6000611b7f82611b14565b611b898185611b1f565b9350611b9483611b30565b8060005b83811015611bc5578151611bac8882611b4f565b9750611bb783611b67565b925050600181019050611b98565b5085935050505092915050565b60006020820190508181036000830152611bec8184611b74565b905092915050565b611bfd816115f8565b8114611c0857600080fd5b50565b600081359050611c1a81611bf4565b92915050565b60008060408385031215611c3757611c3661146b565b5b6000611c45858286016114be565b9250506020611c5685828601611c0b565b9150509250929050565b60008060408385031215611c7757611c7661146b565b5b6000611c85858286016114be565b9250506020611c96858286016114be565b9150509250929050565b600080600080600060a08688031215611cbc57611cbb61146b565b5b6000611cca888289016114be565b9550506020611cdb888289016114be565b9450506040611cec888289016114f4565b9350506060611cfd888289016114f4565b925050608086013567ffffffffffffffff811115611d1e57611d1d611470565b5b611d2a888289016118dc565b9150509295509295909350565b7f455243313135353a2061646472657373207a65726f206973206e6f742061207660008201527f616c6964206f776e657200000000000000000000000000000000000000000000602082015250565b6000611d93602a83611666565b9150611d9e82611d37565b604082019050919050565b60006020820190508181036000830152611dc281611d86565b9050919050565b600081905092915050565b7f68747470733a2f2f697066732e696f2f697066732f626166796265696736747660008201527f7a6e3574686971627370667a333536766e6d61367633786b7a7479367165766560208201527f64703233776a697775373736683677612f000000000000000000000000000000604082015250565b6000611e56605183611dc9565b9150611e6182611dd4565b605182019050919050565b6000611e778261165b565b611e818185611dc9565b9350611e91818560208601611677565b80840191505092915050565b7f2e6a736f6e000000000000000000000000000000000000000000000000000000600082015250565b6000611ed3600583611dc9565b9150611ede82611e9d565b600582019050919050565b6000611ef482611e49565b9150611f008284611e6c565b9150611f0b82611ec6565b915081905092915050565b7f455243313135353a2063616c6c6572206973206e6f7420746f6b656e206f776e60008201527f6572206e6f7220617070726f7665640000000000000000000000000000000000602082015250565b6000611f72602f83611666565b9150611f7d82611f16565b604082019050919050565b60006020820190508181036000830152611fa181611f65565b9050919050565b7f455243313135353a206163636f756e747320616e6420696473206c656e67746860008201527f206d69736d617463680000000000000000000000000000000000000000000000602082015250565b6000612004602983611666565b915061200f82611fa8565b604082019050919050565b6000602082019050818103600083015261203381611ff7565b9050919050565b7f4e487b7100000000000000000000000000000000000000000000000000000000600052603260045260246000fd5b7f4e487b7100000000000000000000000000000000000000000000000000000000600052601160045260246000fd5b60006120a3826114d3565b91507fffffffffffffffffffffffffffffffffffffffffffffffffffffffffffffffff82036120d5576120d4612069565b5b600182019050919050565b7f4e487b7100000000000000000000000000000000000000000000000000000000600052601260045260246000fd5b600061211a826114d3565b9150612125836114d3565b925082612135576121346120e0565b5b828204905092915050565b600061214b826114d3565b9150612156836114d3565b925082820390508181111561216e5761216d612069565b5b92915050565b600061217f826114d3565b915061218a836114d3565b92508261219a576121996120e0565b5b828206905092915050565b60006121b0826114d3565b91506121bb836114d3565b92508282019050808211156121d3576121d2612069565b5b92915050565b7f455243313135353a2069647320616e6420616d6f756e7473206c656e6774682060008201527f6d69736d61746368000000000000000000000000000000000000000000000000602082015250565b6000612235602883611666565b9150612240826121d9565b604082019050919050565b6000602082019050818103600083015261226481612228565b9050919050565b7f455243313135353a207472616e7366657220746f20746865207a65726f20616460008201527f6472657373000000000000000000000000000000000000000000000000000000602082015250565b60006122c7602583611666565b91506122d28261226b565b604082019050919050565b600060208201905081810360008301526122f6816122ba565b9050919050565b7f455243313135353a20696e73756666696369656e742062616c616e636520666f60008201527f72207472616e7366657200000000000000000000000000000000000000000000602082015250565b6000612359602a83611666565b9150612364826122fd565b604082019050919050565b600060208201905081810360008301526123888161234c565b9050919050565b600060408201905081810360008301526123a98185611b74565b905081810360208301526123bd8184611b74565b90509392505050565b7f455243313135353a2073657474696e6720617070726f76616c2073746174757360008201527f20666f722073656c660000000000000000000000000000000000000000000000602082015250565b6000612422602983611666565b915061242d826123c6565b604082019050919050565b6000602082019050818103600083015261245181612415565b9050919050565b600060408201905061246d6000830185611549565b61247a6020830184611549565b9392505050565b61248a81611495565b82525050565b600081519050919050565b600082825260208201905092915050565b60006124b782612490565b6124c1818561249b565b93506124d1818560208601611677565b6124da816116a1565b840191505092915050565b600060a0820190506124fa6000830188612481565b6125076020830187612481565b81810360408301526125198186611b74565b9050818103606083015261252d8185611b74565b9050818103608083015261254181846124ac565b90509695505050505050565b60008151905061255c8161159f565b92915050565b6000602082840312156125785761257761146b565b5b60006125868482850161254d565b91505092915050565b60008160e01c9050919050565b600060033d11156125bb5760046000803e6125b860005161258f565b90505b90565b600060443d1061264b576125d0611461565b60043d036004823e80513d602482011167ffffffffffffffff821117156125f857505061264b565b808201805167ffffffffffffffff811115612616575050505061264b565b80602083010160043d03850181111561263357505050505061264b565b61264282602001850186611741565b82955050505050505b90565b7f455243313135353a207472616e7366657220746f206e6f6e204552433131353560008201527f526563656976657220696d706c656d656e746572000000000000000000000000602082015250565b60006126aa603483611666565b91506126b58261264e565b604082019050919050565b600060208201905081810360008301526126d98161269d565b9050919050565b7f455243313135353a204552433131353552656365697665722072656a6563746560008201527f6420746f6b656e73000000000000000000000000000000000000000000000000602082015250565b600061273c602883611666565b9150612747826126e0565b604082019050919050565b6000602082019050818103600083015261276b8161272f565b9050919050565b600060a0820190506127876000830188612481565b6127946020830187612481565b6127a16040830186611549565b6127ae6060830185611549565b81810360808301526127c081846124ac565b9050969550505050505056fea26469706673582212201b9e20b0a8dcc5ac949ca9a67b92d6a34a5d22d3735473a3d621932e711ee8e864736f6c6343000811003368747470733a2f2f697066732e696f2f697066732f62616679626569673674767a6e3574686971627370667a333536766e6d61367633786b7a7479367165766564703233776a697775373736683677612f7b69647d2e6a736f6e",
  "immutableReferences": {},
  "source": "// SPDX-License-Identifier: MIT\npragma solidity ^0.8.0;\n\nimport \"@openzeppelin/contracts/token/ERC1155/ERC1155.sol\";\nimport \"@openzeppelin/contracts/utils/Strings.sol\";\n\ncontract RockSolidToken is ERC1155 {\n    uint256 public constant Points = 1;\n    uint256 public constant GoldBadge = 2;\n\n    constructor() ERC1155(\"https://ipfs.io/ipfs/bafybeig6tvzn5thiqbspfz356vnma6v3xkzty6qevedp23wjiwu776h6wa/{id}.json\") {\n        _mint(msg.sender, Points, 1000000, \"\");\n        _mint(msg.sender, GoldBadge, 1000, \"\");\n    }\n\n    function uri(uint256 _tokenid) override public pure returns (string memory) {\n        return string(\n            abi.encodePacked(\n                \"https://ipfs.io/ipfs/bafybeig6tvzn5thiqbspfz356vnma6v3xkzty6qevedp23wjiwu776h6wa/\",\n                Strings.toString(_tokenid),\".json\"\n            )\n        );\n    }\n}\n",
  "sourcePath": "/Users/qiwu/go/src/github.cbhq.net/sff-workshop-1/contract/RockSolidToken.sol",
  "compiler": {
    "name": "solc",
    "version": "0.8.17+commit.8df45f5f.Emscripten.clang"
  },
  "schemaVersion": "3.4.10",
  "updatedAt": "2022-10-14T13:01:51.961Z",
  "networkType": "ethereum",
  "devdoc": {
    "kind": "dev",
    "methods": {
      "balanceOf(address,uint256)": {
        "details": "See {IERC1155-balanceOf}. Requirements: - `account` cannot be the zero address."
      },
      "balanceOfBatch(address[],uint256[])": {
        "details": "See {IERC1155-balanceOfBatch}. Requirements: - `accounts` and `ids` must have the same length."
      },
      "isApprovedForAll(address,address)": {
        "details": "See {IERC1155-isApprovedForAll}."
      },
      "safeBatchTransferFrom(address,address,uint256[],uint256[],bytes)": {
        "details": "See {IERC1155-safeBatchTransferFrom}."
      },
      "safeTransferFrom(address,address,uint256,uint256,bytes)": {
        "details": "See {IERC1155-safeTransferFrom}."
      },
      "setApprovalForAll(address,bool)": {
        "details": "See {IERC1155-setApprovalForAll}."
      },
      "supportsInterface(bytes4)": {
        "details": "See {IERC165-supportsInterface}."
      }
    },
    "version": 1
  },
  "userdoc": {
    "kind": "user",
    "methods": {},
    "version": 1
  }
}